{
  "contractName": "BNS",
  "abi": [
    {
      "inputs": [],
      "stateMutability": "nonpayable",
      "type": "constructor"
    },
    {
      "anonymous": false,
      "inputs": [
        {
          "indexed": true,
          "internalType": "address",
          "name": "owner",
          "type": "address"
        },
        {
          "indexed": true,
          "internalType": "address",
          "name": "approved",
          "type": "address"
        },
        {
          "indexed": true,
          "internalType": "uint256",
          "name": "tokenId",
          "type": "uint256"
        }
      ],
      "name": "Approval",
      "type": "event"
    },
    {
      "anonymous": false,
      "inputs": [
        {
          "indexed": true,
          "internalType": "address",
          "name": "owner",
          "type": "address"
        },
        {
          "indexed": true,
          "internalType": "address",
          "name": "operator",
          "type": "address"
        },
        {
          "indexed": false,
          "internalType": "bool",
          "name": "approved",
          "type": "bool"
        }
      ],
      "name": "ApprovalForAll",
      "type": "event"
    },
    {
      "anonymous": false,
      "inputs": [
        {
          "indexed": true,
          "internalType": "address",
          "name": "from",
          "type": "address"
        },
        {
          "indexed": true,
          "internalType": "address",
          "name": "to",
          "type": "address"
        },
        {
          "indexed": true,
          "internalType": "uint256",
          "name": "tokenId",
          "type": "uint256"
        }
      ],
      "name": "Transfer",
      "type": "event"
    },
    {
      "inputs": [
        {
          "internalType": "address",
          "name": "to",
          "type": "address"
        },
        {
          "internalType": "uint256",
          "name": "tokenId",
          "type": "uint256"
        }
      ],
      "name": "approve",
      "outputs": [],
      "stateMutability": "nonpayable",
      "type": "function"
    },
    {
      "inputs": [
        {
          "internalType": "address",
          "name": "owner",
          "type": "address"
        }
      ],
      "name": "balanceOf",
      "outputs": [
        {
          "internalType": "uint256",
          "name": "",
          "type": "uint256"
        }
      ],
      "stateMutability": "view",
      "type": "function"
    },
    {
      "inputs": [
        {
          "internalType": "uint256",
          "name": "tokenId",
          "type": "uint256"
        }
      ],
      "name": "getApproved",
      "outputs": [
        {
          "internalType": "address",
          "name": "",
          "type": "address"
        }
      ],
      "stateMutability": "view",
      "type": "function"
    },
    {
      "inputs": [
        {
          "internalType": "address",
          "name": "owner",
          "type": "address"
        },
        {
          "internalType": "address",
          "name": "operator",
          "type": "address"
        }
      ],
      "name": "isApprovedForAll",
      "outputs": [
        {
          "internalType": "bool",
          "name": "",
          "type": "bool"
        }
      ],
      "stateMutability": "view",
      "type": "function"
    },
    {
      "inputs": [],
      "name": "name",
      "outputs": [
        {
          "internalType": "string",
          "name": "",
          "type": "string"
        }
      ],
      "stateMutability": "view",
      "type": "function"
    },
    {
      "inputs": [
        {
          "internalType": "address",
          "name": "",
          "type": "address"
        },
        {
          "internalType": "address",
          "name": "",
          "type": "address"
        },
        {
          "internalType": "uint256",
          "name": "",
          "type": "uint256"
        },
        {
          "internalType": "bytes",
          "name": "",
          "type": "bytes"
        }
      ],
      "name": "onERC721Received",
      "outputs": [
        {
          "internalType": "bytes4",
          "name": "",
          "type": "bytes4"
        }
      ],
      "stateMutability": "nonpayable",
      "type": "function"
    },
    {
      "inputs": [
        {
          "internalType": "uint256",
          "name": "tokenId",
          "type": "uint256"
        }
      ],
      "name": "ownerOf",
      "outputs": [
        {
          "internalType": "address",
          "name": "",
          "type": "address"
        }
      ],
      "stateMutability": "view",
      "type": "function"
    },
    {
      "inputs": [
        {
          "internalType": "address",
          "name": "from",
          "type": "address"
        },
        {
          "internalType": "address",
          "name": "to",
          "type": "address"
        },
        {
          "internalType": "uint256",
          "name": "tokenId",
          "type": "uint256"
        }
      ],
      "name": "safeTransferFrom",
      "outputs": [],
      "stateMutability": "nonpayable",
      "type": "function"
    },
    {
      "inputs": [
        {
          "internalType": "address",
          "name": "from",
          "type": "address"
        },
        {
          "internalType": "address",
          "name": "to",
          "type": "address"
        },
        {
          "internalType": "uint256",
          "name": "tokenId",
          "type": "uint256"
        },
        {
          "internalType": "bytes",
          "name": "data",
          "type": "bytes"
        }
      ],
      "name": "safeTransferFrom",
      "outputs": [],
      "stateMutability": "nonpayable",
      "type": "function"
    },
    {
      "inputs": [
        {
          "internalType": "address",
          "name": "operator",
          "type": "address"
        },
        {
          "internalType": "bool",
          "name": "approved",
          "type": "bool"
        }
      ],
      "name": "setApprovalForAll",
      "outputs": [],
      "stateMutability": "nonpayable",
      "type": "function"
    },
    {
      "inputs": [
        {
          "internalType": "bytes4",
          "name": "interfaceId",
          "type": "bytes4"
        }
      ],
      "name": "supportsInterface",
      "outputs": [
        {
          "internalType": "bool",
          "name": "",
          "type": "bool"
        }
      ],
      "stateMutability": "view",
      "type": "function"
    },
    {
      "inputs": [],
      "name": "symbol",
      "outputs": [
        {
          "internalType": "string",
          "name": "",
          "type": "string"
        }
      ],
      "stateMutability": "view",
      "type": "function"
    },
    {
      "inputs": [
        {
          "internalType": "address",
          "name": "from",
          "type": "address"
        },
        {
          "internalType": "address",
          "name": "to",
          "type": "address"
        },
        {
          "internalType": "uint256",
          "name": "tokenId",
          "type": "uint256"
        }
      ],
      "name": "transferFrom",
      "outputs": [],
      "stateMutability": "nonpayable",
      "type": "function"
    },
    {
      "inputs": [
        {
          "internalType": "bytes32",
          "name": "",
          "type": "bytes32"
        }
      ],
      "name": "wrappedTokens",
      "outputs": [
        {
          "internalType": "bool",
          "name": "",
          "type": "bool"
        }
      ],
      "stateMutability": "view",
      "type": "function"
    },
    {
      "inputs": [
        {
          "internalType": "address",
          "name": "token",
          "type": "address"
        },
        {
          "internalType": "string",
          "name": "name",
          "type": "string"
        }
      ],
      "name": "wrapNFT",
      "outputs": [],
      "stateMutability": "payable",
      "type": "function"
    },
    {
      "inputs": [
        {
          "internalType": "address",
          "name": "token",
          "type": "address"
        },
        {
          "internalType": "uint256",
          "name": "bnsTokenId",
          "type": "uint256"
        }
      ],
      "name": "unwrapNFT",
      "outputs": [],
      "stateMutability": "nonpayable",
      "type": "function"
    },
    {
      "inputs": [
        {
          "internalType": "uint256",
          "name": "bnsTokenId",
          "type": "uint256"
        }
      ],
      "name": "tokenURI",
      "outputs": [
        {
          "internalType": "string",
          "name": "",
          "type": "string"
        }
      ],
      "stateMutability": "view",
      "type": "function"
    }
  ],
  "bytecode": "0x60806040523480156200001157600080fd5b50604080518082018252601381527f427269646765204e616d65205365727669636500000000000000000000000000602080830191825283518085019094526003845262424e5360e81b908401528151919291620000729160009162000091565b5080516200008890600190602084019062000091565b50505062000174565b8280546200009f9062000137565b90600052602060002090601f016020900481019282620000c357600085556200010e565b82601f10620000de57805160ff19168380011785556200010e565b828001600101855582156200010e579182015b828111156200010e578251825591602001919060010190620000f1565b506200011c92915062000120565b5090565b5b808211156200011c576000815560010162000121565b600181811c908216806200014c57607f821691505b602082108114156200016e57634e487b7160e01b600052602260045260246000fd5b50919050565b6117af80620001846000396000f3fe6080604052600436106100fe5760003560e01c80636352211e11610095578063a22cb46511610064578063a22cb465146102d3578063b88d4fde146102f3578063c300896114610313578063c87b56dd14610333578063e985e9c51461035357600080fd5b80636352211e1461025d57806370a082311461027d578063745f3722146102ab57806395d89b41146102be57600080fd5b8063150b7a02116100d1578063150b7a02146101b457806323b872dd146101ed57806342842e0e1461020d578063633662ec1461022d57600080fd5b806301ffc9a71461010357806306fdde0314610138578063081812fc1461015a578063095ea7b314610192575b600080fd5b34801561010f57600080fd5b5061012361011e36600461155b565b61039c565b60405190151581526020015b60405180910390f35b34801561014457600080fd5b5061014d6103ee565b60405161012f919061161b565b34801561016657600080fd5b5061017a610175366004611543565b610480565b6040516001600160a01b03909116815260200161012f565b34801561019e57600080fd5b506101b26101ad36600461151a565b6104a7565b005b3480156101c057600080fd5b506101d46101cf366004611408565b6105c2565b6040516001600160e01b0319909116815260200161012f565b3480156101f957600080fd5b506101b26102083660046113cd565b6105d3565b34801561021957600080fd5b506101b26102283660046113cd565b610604565b34801561023957600080fd5b50610123610248366004611543565b60076020526000908152604090205460ff1681565b34801561026957600080fd5b5061017a610278366004611543565b61061f565b34801561028957600080fd5b5061029d61029836600461137a565b61067f565b60405190815260200161012f565b6101b26102b93660046114bb565b610705565b3480156102ca57600080fd5b5061014d6108b7565b3480156102df57600080fd5b506101b26102ee366004611481565b6108c6565b3480156102ff57600080fd5b506101b261030e366004611408565b6108d5565b34801561031f57600080fd5b506101b261032e36600461151a565b610907565b34801561033f57600080fd5b5061014d61034e366004611543565b610a8c565b34801561035f57600080fd5b5061012361036e36600461139b565b6001600160a01b03918216600090815260056020908152604080832093909416825291909152205460ff1690565b60006001600160e01b031982166380ac58cd60e01b14806103cd57506001600160e01b03198216635b5e139f60e01b145b806103e857506301ffc9a760e01b6001600160e01b03198316145b92915050565b6060600080546103fd90611712565b80601f016020809104026020016040519081016040528092919081815260200182805461042990611712565b80156104765780601f1061044b57610100808354040283529160200191610476565b820191906000526020600020905b81548152906001019060200180831161045957829003601f168201915b5050505050905090565b600061048b82610b7c565b506000908152600460205260409020546001600160a01b031690565b60006104b28261061f565b9050806001600160a01b0316836001600160a01b031614156105255760405162461bcd60e51b815260206004820152602160248201527f4552433732313a20617070726f76616c20746f2063757272656e74206f776e656044820152603960f91b60648201526084015b60405180910390fd5b336001600160a01b03821614806105415750610541813361036e565b6105b35760405162461bcd60e51b815260206004820152603d60248201527f4552433732313a20617070726f76652063616c6c6572206973206e6f7420746f60448201527f6b656e206f776e6572206f7220617070726f76656420666f7220616c6c000000606482015260840161051c565b6105bd8383610bde565b505050565b630a85bd0160e11b5b949350505050565b6105dd3382610c4c565b6105f95760405162461bcd60e51b815260040161051c9061162e565b6105bd838383610cca565b6105bd838383604051806020016040528060008152506108d5565b6000818152600260205260408120546001600160a01b0316806103e85760405162461bcd60e51b8152602060048201526018602482015277115490cdcc8c4e881a5b9d985b1a59081d1bdad95b88125160421b604482015260640161051c565b60006001600160a01b0382166106e95760405162461bcd60e51b815260206004820152602960248201527f4552433732313a2061646472657373207a65726f206973206e6f7420612076616044820152683634b21037bbb732b960b91b606482015260840161051c565b506001600160a01b031660009081526003602052604090205490565b6000818051906020012060405160200161072191815260200190565b604051602081830303815290604052805190602001209050826001600160a01b03167357f1887a8bf19b14fc0df6fd9b2acc9af147ea856001600160a01b0316146107c75760405162461bcd60e51b815260206004820152603060248201527f5468697320636f6e7472616374206973207370656369666963616c6c7920627560448201526f696c7420666f7220454e53204e46547360801b606482015260840161051c565b60008181526007602052604090205460ff16156108265760405162461bcd60e51b815260206004820152601d60248201527f454e5320646f6d61696e20697320616c72656164792077726170706564000000604482015260640161051c565b604051632142170760e11b81523360048201523060248201526044810182905281906001600160a01b038516906342842e0e90606401600060405180830381600087803b15801561087657600080fd5b505af115801561088a573d6000803e3d6000fd5b5050506000838152600760205260409020805460ff19166001179055506108b13382610e2e565b50505050565b6060600180546103fd90611712565b6108d1338383610fb9565b5050565b6108df3383610c4c565b6108fb5760405162461bcd60e51b815260040161051c9061162e565b6108b184848484611088565b6001600160a01b0381163361091b8361061f565b6001600160a01b03161461098d5760405162461bcd60e51b815260206004820152603360248201527f596f75206d75737420626520746865206f776e6572206f662074686520424e53604482015272081d1bdad95b881d1bc81d5b9ddc985c081a5d606a1b606482015260840161051c565b60008181526007602052604090205460ff16610a075760405162461bcd60e51b815260206004820152603360248201527f54686520454e5320746f6b656e206973206e6f742063757272656e746c792068604482015272195b19081a5b881d1a194818dbdb9d1c9858dd606a1b606482015260840161051c565b604051632142170760e11b8152306004820152336024820152604481018390526001600160a01b038416906342842e0e90606401600060405180830381600087803b158015610a5557600080fd5b505af1158015610a69573d6000803e3d6000fd5b5050506000828152600760205260409020805460ff19169055506105bd826110bb565b6001600160a01b0381166000818152600760205260409020546060919060ff16610af85760405162461bcd60e51b815260206004820152601960248201527f454e5320646f6d61696e206973206e6f74207772617070656400000000000000604482015260640161051c565b5050604080517f68747470733a2f2f6d657461646174612e656e732e646f6d61696e732f676f6560208201527f726c692f30783537663138383761386266313962313466633064663666643962818301526e32616363396166313437656138352f60881b6060820152606f8082019390935281518082039093018352608f01905290565b6000818152600260205260409020546001600160a01b0316610bdb5760405162461bcd60e51b8152602060048201526018602482015277115490cdcc8c4e881a5b9d985b1a59081d1bdad95b88125160421b604482015260640161051c565b50565b600081815260046020526040902080546001600160a01b0319166001600160a01b0384169081179091558190610c138261061f565b6001600160a01b03167f8c5be1e5ebec7d5bd14f71427d1e84f3dd0314c0f7b2291e5b200ac8c7c3b92560405160405180910390a45050565b600080610c588361061f565b9050806001600160a01b0316846001600160a01b03161480610c9f57506001600160a01b0380821660009081526005602090815260408083209388168352929052205460ff165b806105cb5750836001600160a01b0316610cb884610480565b6001600160a01b031614949350505050565b826001600160a01b0316610cdd8261061f565b6001600160a01b031614610d035760405162461bcd60e51b815260040161051c906116cd565b6001600160a01b038216610d655760405162461bcd60e51b8152602060048201526024808201527f4552433732313a207472616e7366657220746f20746865207a65726f206164646044820152637265737360e01b606482015260840161051c565b826001600160a01b0316610d788261061f565b6001600160a01b031614610d9e5760405162461bcd60e51b815260040161051c906116cd565b600081815260046020908152604080832080546001600160a01b03199081169091556001600160a01b0387811680865260038552838620805460001901905590871680865283862080546001019055868652600290945282852080549092168417909155905184937fddf252ad1be2c89b69c2b068fc378daa952ba7f163c4a11628f55a4df523b3ef91a4505050565b6001600160a01b038216610e845760405162461bcd60e51b815260206004820181905260248201527f4552433732313a206d696e7420746f20746865207a65726f2061646472657373604482015260640161051c565b6000818152600260205260409020546001600160a01b031615610ee95760405162461bcd60e51b815260206004820152601c60248201527f4552433732313a20746f6b656e20616c7265616479206d696e74656400000000604482015260640161051c565b6000818152600260205260409020546001600160a01b031615610f4e5760405162461bcd60e51b815260206004820152601c60248201527f4552433732313a20746f6b656e20616c7265616479206d696e74656400000000604482015260640161051c565b6001600160a01b038216600081815260036020908152604080832080546001019055848352600290915280822080546001600160a01b0319168417905551839291907fddf252ad1be2c89b69c2b068fc378daa952ba7f163c4a11628f55a4df523b3ef908290a45050565b816001600160a01b0316836001600160a01b0316141561101b5760405162461bcd60e51b815260206004820152601960248201527f4552433732313a20617070726f766520746f2063616c6c657200000000000000604482015260640161051c565b6001600160a01b03838116600081815260056020908152604080832094871680845294825291829020805460ff191686151590811790915591519182527f17307eab39ab6107e8899845ad3d59bd9653f200f220920489ca2b5937696c31910160405180910390a3505050565b611093848484610cca565b61109f848484846110fb565b6108b15760405162461bcd60e51b815260040161051c9061167b565b6110c481611205565b600081815260066020526040902080546110dd90611712565b159050610bdb576000818152600660205260408120610bdb9161129a565b60006001600160a01b0384163b156111fd57604051630a85bd0160e11b81526001600160a01b0385169063150b7a029061113f9033908990889088906004016115de565b602060405180830381600087803b15801561115957600080fd5b505af1925050508015611189575060408051601f3d908101601f1916820190925261118691810190611577565b60015b6111e3573d8080156111b7576040519150601f19603f3d011682016040523d82523d6000602084013e6111bc565b606091505b5080516111db5760405162461bcd60e51b815260040161051c9061167b565b805181602001fd5b6001600160e01b031916630a85bd0160e11b1490506105cb565b5060016105cb565b60006112108261061f565b905061121b8261061f565b600083815260046020908152604080832080546001600160a01b03199081169091556001600160a01b0385168085526003845282852080546000190190558785526002909352818420805490911690555192935084927fddf252ad1be2c89b69c2b068fc378daa952ba7f163c4a11628f55a4df523b3ef908390a45050565b5080546112a690611712565b6000825580601f106112b6575050565b601f016020900490600052602060002090810190610bdb91905b808211156112e457600081556001016112d0565b5090565b600067ffffffffffffffff808411156113035761130361174d565b604051601f8501601f19908116603f0116810190828211818310171561132b5761132b61174d565b8160405280935085815286868601111561134457600080fd5b858560208301376000602087830101525050509392505050565b80356001600160a01b038116811461137557600080fd5b919050565b60006020828403121561138b578081fd5b6113948261135e565b9392505050565b600080604083850312156113ad578081fd5b6113b68361135e565b91506113c46020840161135e565b90509250929050565b6000806000606084860312156113e1578081fd5b6113ea8461135e565b92506113f86020850161135e565b9150604084013590509250925092565b6000806000806080858703121561141d578081fd5b6114268561135e565b93506114346020860161135e565b925060408501359150606085013567ffffffffffffffff811115611456578182fd5b8501601f81018713611466578182fd5b611475878235602084016112e8565b91505092959194509250565b60008060408385031215611493578182fd5b61149c8361135e565b9150602083013580151581146114b0578182fd5b809150509250929050565b600080604083850312156114cd578182fd5b6114d68361135e565b9150602083013567ffffffffffffffff8111156114f1578182fd5b8301601f81018513611501578182fd5b611510858235602084016112e8565b9150509250929050565b6000806040838503121561152c578182fd5b6115358361135e565b946020939093013593505050565b600060208284031215611554578081fd5b5035919050565b60006020828403121561156c578081fd5b813561139481611763565b600060208284031215611588578081fd5b815161139481611763565b60008151808452815b818110156115b85760208185018101518683018201520161159c565b818111156115c95782602083870101525b50601f01601f19169290920160200192915050565b6001600160a01b038581168252841660208201526040810183905260806060820181905260009061161190830184611593565b9695505050505050565b6020815260006113946020830184611593565b6020808252602d908201527f4552433732313a2063616c6c6572206973206e6f7420746f6b656e206f776e6560408201526c1c881bdc88185c1c1c9bdd9959609a1b606082015260800190565b60208082526032908201527f4552433732313a207472616e7366657220746f206e6f6e20455243373231526560408201527131b2b4bb32b91034b6b83632b6b2b73a32b960711b606082015260800190565b60208082526025908201527f4552433732313a207472616e736665722066726f6d20696e636f72726563742060408201526437bbb732b960d91b606082015260800190565b600181811c9082168061172657607f821691505b6020821081141561174757634e487b7160e01b600052602260045260246000fd5b50919050565b634e487b7160e01b600052604160045260246000fd5b6001600160e01b031981168114610bdb57600080fdfea2646970667358221220e8970eec3d41b41cd60e4d1362c42462942393e83591f95665cb3558dda5829064736f6c63430008040033",
  "immutableReferences": {},
  "source": "// contracts/BNS.sol\n// SPDX-License-Identifier: MIT\npragma solidity ^0.8.0;\n\n// import \"@ensdomains/ens-contracts/contracts/registry/ENS.sol\";\nimport \"@openzeppelin/contracts/token/ERC721/extensions/ERC721URIStorage.sol\";\nimport \"@openzeppelin/contracts/token/ERC721/IERC721.sol\";\nimport \"@openzeppelin/contracts/token/ERC721/utils/ERC721Holder.sol\";\n\ncontract BNS is ERC721URIStorage, ERC721Holder {\n    // ENS public ens = ENS(0x57f1887a8BF19b14fC0dF6Fd9B2acc9Af147eA85);\n    mapping(bytes32 => bool) public wrappedTokens;\n\n    constructor() ERC721(\"Bridge Name Service\", \"BNS\") {}\n\n    function wrapNFT(address token, string memory name) public payable {\n        bytes32 tokenAddress = keccak256(\n            abi.encodePacked(keccak256(bytes(name)))\n        );\n        require(\n            token == 0x57f1887a8BF19b14fC0dF6Fd9B2acc9Af147eA85,\n            \"This contract is specifically built for ENS NFTs\"\n        );\n\n        require(!wrappedTokens[tokenAddress], \"ENS domain is already wrapped\");\n\n        uint256 bnsTokenId = uint256(tokenAddress);\n        IERC721(token).safeTransferFrom(msg.sender, address(this), bnsTokenId);\n\n        wrappedTokens[tokenAddress] = true;\n        _mint(msg.sender, bnsTokenId);\n    }\n\n    function unwrapNFT(address token, uint256 bnsTokenId) public {\n        bytes32 tokenAddress = bytes32(uint256(uint160(bnsTokenId)));\n        require(\n            ownerOf(bnsTokenId) == msg.sender,\n            \"You must be the owner of the BNS token to unwrap it\"\n        );\n        require(\n            wrappedTokens[tokenAddress],\n            \"The ENS token is not currently held in the contract\"\n        );\n        IERC721(token).safeTransferFrom(address(this), msg.sender, bnsTokenId);\n\n        wrappedTokens[tokenAddress] = false;\n        _burn(bnsTokenId);\n    }\n\n    // function onERC721Received(\n    //     address operator,\n    //     address,\n    //     uint256,\n    //     bytes calldata\n    // ) external view returns (bytes4) {\n    //     require(\n    //         operator == address(this),\n    //         \"can only transfer tokens via wrapNFT method\"\n    //     );\n    //     return type(IERC721Receiver).interfaceId;\n    // }\n\n    function tokenURI(uint256 bnsTokenId)\n        public\n        view\n        override\n        returns (string memory)\n    {\n        bytes32 tokenAddress = bytes32(uint256(uint160(bnsTokenId)));\n        require(wrappedTokens[tokenAddress], \"ENS domain is not wrapped\");\n        return\n            string(\n                abi.encodePacked(\n                    \"https://metadata.ens.domains/goerli/0x57f1887a8bf19b14fc0df6fd9b2acc9af147ea85/\",\n                    bnsTokenId\n                )\n            );\n    }\n}\n",
  "sourcePath": "/home/k/solana/onsol/bridge-name-service/contracts/BNS/BNS.sol",
  "compiler": {
    "name": "solc",
    "version": "0.8.4+commit.c7e474f2.Emscripten.clang"
  },
  "schemaVersion": "3.4.1",
  "updatedAt": "2023-03-05T07:13:02.061Z",
  "devdoc": {
    "kind": "dev",
    "methods": {
      "approve(address,uint256)": {
        "details": "See {IERC721-approve}."
      },
      "balanceOf(address)": {
        "details": "See {IERC721-balanceOf}."
      },
      "getApproved(uint256)": {
        "details": "See {IERC721-getApproved}."
      },
      "isApprovedForAll(address,address)": {
        "details": "See {IERC721-isApprovedForAll}."
      },
      "name()": {
        "details": "See {IERC721Metadata-name}."
      },
      "onERC721Received(address,address,uint256,bytes)": {
        "details": "See {IERC721Receiver-onERC721Received}. Always returns `IERC721Receiver.onERC721Received.selector`."
      },
      "ownerOf(uint256)": {
        "details": "See {IERC721-ownerOf}."
      },
      "safeTransferFrom(address,address,uint256)": {
        "details": "See {IERC721-safeTransferFrom}."
      },
      "safeTransferFrom(address,address,uint256,bytes)": {
        "details": "See {IERC721-safeTransferFrom}."
      },
      "setApprovalForAll(address,bool)": {
        "details": "See {IERC721-setApprovalForAll}."
      },
      "supportsInterface(bytes4)": {
        "details": "See {IERC165-supportsInterface}."
      },
      "symbol()": {
        "details": "See {IERC721Metadata-symbol}."
      },
      "transferFrom(address,address,uint256)": {
        "details": "See {IERC721-transferFrom}."
      }
    },
    "version": 1
  },
  "userdoc": {
    "kind": "user",
    "methods": {},
    "version": 1
  }
}